:020000040800F2
:10000000A80500209D01000853200008B31B00082C
:1000100051200008CD080008B523000800000000AA
:100020000000000000000000000000005720000851
:10003000CF080008000000005520000859200008E3
:10004000B7010008B7010008B7010008B7010008B0
:10005000B7010008B7010008B7010008B7010008A0
:10006000B7010008B7010008B7010008B701000890
:10007000B7010008B7010008B7010008B701000880
:10008000B7010008B7010008B7010008B701000870
:10009000B7010008B7010008B7010008B701000860
:1000A000B7010008B7010008B7010008B701000850
:1000B000E9200008B7010008B7010008B7010008EF
:1000C000B7010008B7010008B7010008B701000830
:1000D000B7010008B7010008B7010008B701000820
:1000E000B7010008B7010008B7010008B701000810
:1000F000B7010008B7010008B7010008B701000800
:10010000B7010008B7010008B7010008B7010008EF
:10011000B7010008B7010008B7010008B7010008DF
:10012000B7010008B7010008B7010008B7010008CF
:10013000B7010008B7010008B7010008B7010008BF
:10014000B7010008B7010008B7010008B7010008AF
:10015000B7010008B7010008B7010008B70100089F
:10016000B7010008B7010008B7010008B70100088F
:10017000B7010008B7010008B7010008000000003F
:10018000B7010008B7010008DFF80CD000F08CFBC5
:100190000048004739350008A80500200648804778
:1001A00006480047FEE7FEE7FEE7FEE7FEE7FEE75C
:1001B000FEE7FEE7FEE7FEE7CD2000088901000824
:1001C0002DE9F05F0546002092469B46884606468C
:1001D000814640241BE0284641464746224600F01F
:1001E00094FA53465A46C01A914110D31146184604
:1001F000224600F07BFA2D1A67EB01084F46224693
:100200000120002100F072FA17EB00094E41201E78
:10021000A4F10104DFDC484631462A464346BDE8E6
:10022000F09FD2B201E000F8012B491EFBD27047CB
:100230000022F6E710B513460A4604461946FFF7B2
:10024000F0FF204610BD2DE9FE4F804681EA0300F5
:10025000C00F0C46009021F0004123F00045B8EBA0
:100260000200A94105D24046214690461C460B4655
:10027000024623F00040104347D0270DC7F30A0081
:10028000C3F30A510290401A019040286BDAC3F37D
:10029000130040F4801B0098924620B10023D2EB5B
:1002A000030A63EB0B0B01985946C0F1400250461C
:1002B00000F01CFA06460D4650465946019A00F0D9
:1002C00034FA10EB08006141002487EA115284EAF5
:1002D000E7731A4340D0009A62B3019A012A4FEAA9
:1002E000075215DC001B61EB02014FF0004202EAED
:1002F0000752CDE90042001C41F5801132462B46E1
:1003000000F06BFA03B0BDE8F08F40462146F9E7F4
:10031000001B61EB0201001C41F5801300185B41DA
:100320002018A2F5001747EB030140EAD570B61973
:100330006D4111E06D084FEA360645EAC0754FEA97
:100340000752001B61EB0201001C41F580114908B6
:100350004FEA30000019514132462B4603B0BDE848
:10036000F04F00F02BBA0098012240000023D0EBA0
:10037000020263EBE073009821464FEAE074B8EBA9
:10038000000061EB0401E9E783F000435BE781F0E3
:10039000004158E72DE9FE4F81EA030404F00044D0
:1003A00021F0004100944FF0000B23F0004350EA8D
:1003B00001045ED052EA03045BD0C3F30A54C1F3D4
:1003C0000A552C44A4F2F3340194A0FB0254C1F367
:1003D000130141F48011C3F3130343F4801301FBB1
:1003E000024400FB034E840A970A44EA815447EA18
:1003F0008357A4FB076802958D0A05FB07854FEA22
:10040000932C04FB0C542705029D4FEA065847EA3B
:100410001637B5EB08056EEB070C870E920E47EA10
:10042000811742EA8312A7FB0201B6EB0B0164EBD2
:1004300000042B0D43EA0C335E1844EB1C50DA46E3
:100440005146E7FB0201C5F313044FEA0B3343EABD
:1004500014534FEA0432019C43EA0603A4F10C044E
:100460000294009CCDE900B400F0B7F903B0BDE8F8
:10047000F08F00200146F9E72DE9F04D81EA0304F1
:1004800004F0004B21F0004514464FF0000A23F021
:10049000004150EA050220D054EA01021DD0C5F304
:1004A0000A570246C5F31303C1F31300C1F30A56FA
:1004B00040F4801543F48013A7EB0608101BD646C2
:1004C00008F2FD3873EB050002D308F1010801E0E2
:1004D00092185B41B8F1000F03DA00200146BDE835
:1004E000F08D00204FF48011064684460EE0171B65
:1004F00073EB050705D3121B63EB050306434CEAB8
:10050000010C49084FEA300092185B4150EA01079C
:10051000EDD152EA030012D082EA040083EA050119
:10052000084305D0101BAB4106D20122002306E090
:1005300000224FF0004302E06FF0010253101AEB6B
:1005400006004CEB085110EB0A0041EB0B01BDE833
:10055000F04D00F033B90EB5C10F80EAE0700844E9
:10056000CA07002140F233438DE80E000A460B46CD
:1005700000F033F903B000BD0EB540F233410291F3
:100580000021CDE900110A460B4600F026F903B020
:1005900000BD70B5C1F30A5201F000450024C1F35B
:1005A000130140F2FF3341F480119A4201DA002036
:1005B00070BD40F233439A42A2F2334203DC52420E
:1005C00000F0A3F800E090402C43F1D0404270BD11
:1005D000C1F30A5210B5C1F3130140F2FF3341F4E5
:1005E00080119A4201DA002010BD40F233439A4252
:1005F000A2F2334203DC524200F087F810BD904073
:1006000010BD00F0004230F000400AD0C10D01F5ED
:100610006071C0F3160042EA0151C208400711435D
:10062000704700200146704730B5041E71F1000488
:1006300004DB4FF00044404264EB0101141E73F1EF
:10064000000405DB1C464FF00043524263EB0403F9
:100650008B4208BF824230BD30B5041E71F10004E8
:1006600004DB4FF00044404264EB0101141E73F1BF
:10067000000405DB1C464FF00043524263EB0403C9
:10068000994208BF904230BD01F0004330B421F0E0
:10069000004150EA010206D00A0DA2F56072C1F3D2
:1006A0001301002A02DC30BC00207047440F44EAEA
:1006B000C104C100E01830BC00EBC25000F047B8E4
:1006C00030B50B46014600202022012409E021FA22
:1006D00002F59D4205D303FA02F5491B04FA02F51F
:1006E0002844151EA2F10102F1DC30BD202A04DBF2
:1006F000203A00FA02F1002070479140C2F1200335
:1007000020FA03F3194390407047202A04DB203A73
:1007100021FA02F00021704721FA02F3D040C2F121
:1007200020029140084319467047202A06DBCB1768
:10073000203A41FA02F043EAE07306E041FA02F39C
:10074000D040C2F120029140084319467047002969
:10075000A8BF7047401C490008BF20F00100704747
:1007600010B4B0FA80FC00FA0CF050EA010404BFA7
:1007700010BC704749B1CCF1200421FA04F411FAFD
:100780000CF118BF012121430843A3EB0C01CB1D41
:100790004FEA00614FEA102042BF002010BC7047B2
:1007A00000EBC35010440029A4BF10BC7047401C8C
:1007B000490008BF20F0010010BC704710B5141E9E
:1007C00073F1000408DA401C41F1000192185B410A
:1007D0001A4301D120F0010010BD2DE9F04D9246E1
:1007E0009B4611B1B1FA81F202E0B0FA80F22032F8
:1007F0009046FFF77BFF04460F4640EA0A0041EAB5
:100800000B0153465A46084313D0114653EA0100E0
:1008100019D0C8F140025046FFF777FF05460E4653
:10082000504659464246FFF761FF084305D0012074
:1008300004E020463946BDE8F08D0020054346EA35
:10084000E0762C4337430A986305E40AA0EB0800DE
:100850000022FD0A44EA47540A3002D5002001462E
:10086000E9E7010510196941DDE908450019694109
:10087000BDE8F04DA2E7C1F30A52C1F3130140F203
:10088000FF3341F480119A4202DA0020014670479A
:1008900040F233439A42A2F2334202DC5242FFF763
:1008A00034BFFFF723BF0000064C074D06E0E068A9
:1008B00040F0010394E8070098471034AC42F6D3A7
:1008C000FFF766FCBC350008DC350008FEE7704722
:1008D0002DE9F84F00224FF0010803254FF00F0ECD
:1008E0000B6808FA02F42340A3426ED14E68012E31
:1008F00005D0022E03D0112E01D0122E12D18668FF
:100900004FEA420C05FA0CF7BE43CF6807FA0CF722
:10091000374387604668A6430C79C4F300149440BB
:1009200034434460C668570005FA07FC8C6826EA21
:100930000C06BC403443C4604C68022C01D0122C1D
:1009400013D1D40800EB8404A346D4F820905407B4
:100950004FEAD46A0EFA0AF629EA06090E6906FA7F
:100960000AF646EA0906CBF8206006680C7926EA02
:100970000C0604F00304BC40344304604C68E400FB
:1009800065D5364C266846F480462660246822F0F9
:10099000030604F480440094314C3444A446D4F853
:1009A00008489607370F0EFA07F6B4432D4EB042AB
:1009B00001D1002624E02C4EB04201D101261FE0D7
:1009C0002A4EB04202D102261AE040E0284EB04240
:1009D00001D1032614E0274EB04201D104260FE0D6
:1009E000254EB04201D105260AE0244EB04201D185
:1009F000062605E0224EB04201D1072600E0082677
:100A0000BE402643CCF808681E4E34684F689C43AD
:100A1000FF0300D51C4334601A4C241D26684F6820
:100A20009E43BF0300D51E432660164E0836346829
:100A30004F689C43FF0200D51C433460114E0C36B6
:100A400034684F689C43BF0200D51C433460521C7D
:100A5000102AFFF445AFBDE8F88F0000443802408B
:100A60000030014000000240000402400008024043
:100A7000000C024000100240001402400018024026
:100A8000001C0240003C0140426931EA020200D1F0
:100A90000904816170470AB1816170470904FBE76D
:100AA00001488068704700006000002070B50400B5
:100AB00025D094F83D00002520B984F83C5020460C
:100AC00000F03EFA242084F83D002068016821F0FF
:100AD000010101602068016841F400410160206863
:100AE000016821F40041016000F094FB4D4A616807
:100AF000914201D84C4900E04C49884201D2012082
:100B000070BD4B492368B0FBF1F15E6826F03F06EB
:100B10000E435E606368934206D94FF4967359435F
:100B20004FF47A73B1FBF3F12368491C1E6A26F077
:100B30003F06314319626168914210D84900401E56
:100B4000B0FBF1F2521CC2F30B02042A01D20420C2
:100B500022E0B0FBF1F0401CC0F30B001CE0A268E7
:100B6000F2B301EBC10303EB0116431EB3FBF6F333
:100B70005B1C43F480431B0549D092B301EBC102D7
:100B800002EB0111401EB0FBF1F0401CC0F30B0062
:100B900040F4804040F400402168CA694CF6FF737D
:100BA0009A431043C861D4E90710014320680268E2
:100BB00022F0C00211430160D4E90301014320681F
:100BC000826848F2FF339A4311438160D4E90501FA
:100BD00008432168CA6822F0FF021043C86001E0A0
:100BE0000EE016E02068016841F001010160256413
:100BF000202084F83D00256384F83E50002070BD1D
:100C000001EB4106431EB3FBF6F35B1CB3E7012087
:100C1000C2E701EB4101401EB0FBF1F0401CC0F304
:100C20000B00B7E7A086010080841E0000093D008C
:100C300040420F002DE9F84F1F4690468A46044671
:100C4000DDF82890FFF72CFF054694F83D0020289A
:100C500075D1192301226C492046009501F0ACF8AA
:100C60000028F5D194F83C00012868D0012084F8D0
:100C70003C0020680168C90703D1016841F0010107
:100C800001602068016821F400610160222084F87D
:100C90003D00102084F83E0000262664C4F824801D
:100CA0006785608D20855948E0622B464A4651464B
:100CB000204600F097FF002878D1208D544F68B16E
:100CC000012814D002282068016816D041F4806100
:100CD0000160206841698069009087E0206841696F
:100CE00081690091016841F4007101607EE0206833
:100CF000016821F480610160F0E721F48061016006
:100D00002068016841F40061E2E7032848D801281F
:100D10000AD0022814D04B460022394620460095BE
:100D200001F04AF8D8BB27E02A464946204601F0A0
:100D3000C2F8A0BB20680069616A08704DE061E0FC
:100D40004B46002239462046009501F035F830BB6D
:100D50002068016841F40071016020680069616ADF
:100D60000870606A401C6062218D491E2185618D7A
:100D7000491E618521682EE02068016821F48061A8
:100D8000016020680069616A0870606A401C6062E6
:100D9000208D401E2085608D401E6085D0E705E0D7
:100DA0002A464946204601F086F810B10120BDE8E8
:100DB000F88F20680069616A0870606A401C606290
:100DC000218D491E2185618D491E618521684A69F1
:100DD000D24352070AD409690170606A401C6062FC
:100DE000208D401E2085608D401E6085208D00284E
:100DF0008BD1202084F83D0084F83E6084F83C606C
:100E00000020D4E70220D2E7020010000000FFFF1C
:100E1000040001002DE9F84F1F4690468A4604461B
:100E2000DDF82890FFF73CFE054694F83D002028A9
:100E30007FD11923012240492046009500F0BCFFD4
:100E4000002876D194F83C00012872D0012084F863
:100E50003C0020680168C90703D1016841F0010125
:100E600001602068016821F400610160212084F89C
:100E70003D00102084F83E0000262664C4F824803B
:100E80006785608D20852D48E0622B464A46514695
:100E9000204600F01DFF90B92068416980690090EC
:100EA00036E02A464946204601F038F850B1206C19
:100EB000042804D12068016841F400710160012018
:100EC000BDE8F88F606A216800780861606A401C9C
:100ED0006062618D491E6185218D491E89B221851F
:100EE00022685369DB435B070BD451B10078106172
:100EF000606A401C6062608D401E6085208D401ECF
:100F000020852A464946204600F030FF0028CED1F1
:100F1000208D0028C5D154F83D0B016841F40071C3
:100F20000160202004F81E09E67766770020C7E7F5
:100F3000FFE70220C4E70000020010000000FFFFEE
:100F400010B586B0044614216846FFF771F91449BC
:100F50002068884221D11348016841F002010160F4
:100F60000068694600F0020005904FF4C0700090E0
:100F7000122001900120029003200390042004908D
:100F80000948FFF7A5FC07481030016841F400113B
:100F90000160006800F40010059006B010BD00006C
:100FA000005400403038024000040240024881688A
:100FB0000278114481607047600000200B4810B532
:100FC000016841F400710160016841F480610160D1
:100FD000016841F480710160032000F06FF8002087
:100FE00000F006F800F024F8002010BD003C02409C
:100FF00070B50D4D04464FF47A712878B1FBF0F0CE
:101000000A490968B1FBF0F000F004FB48B9102C64
:1010100007D200222146501E00F030F800206C60FC
:1010200070BD012070BD0000600000206C00002039
:101030000A4808B5016841F480410160006800F485
:10104000804000900548001F016841F08051016018
:10105000006800F08050009008BD00004438024055
:10106000002809DB00F01F020121914040098000A7
:1010700000F1E020C0F8001170470000F0B40E4B02
:101080001B680C46C3F30223C3F10705042D00D9E6
:101090000425191D072901D2002300E0DB1E0126CB
:1010A00006FA05F1491E214099409E40761E1640E1
:1010B0003143F0BC01F094B90CED00E0064900F0BA
:1010C000070208684FF6FF03184040EA0220034A6F
:1010D00010430860704700000CED00E00000FA05C6
:1010E0002DE9F0470E46050065D0DFF81481D8F8E9
:1010F0000000F7B200F00F00B04207D288F800708D
:10110000D8F8000000F00F00B04254D128683D4CE0
:10111000810712D5400703D5206840F4E0502060D5
:101120002878000703D5206840F4604020602068DC
:10113000A96820F0F000084320602878C0072DD06F
:10114000304968680839012812D0022813D00328D2
:1011500011D00968890700292DDA216821F00301DF
:1011600001432160FFF79CFC814641F2883A0EE082
:1011700009688903EFE709688901ECE7FFF790FC4C
:10118000A0EB0901514502D90320BDE8F087206892
:10119000696800F00C00B0EB810FEFD1D8F80010B7
:1011A000404601F00F01B14207D90770006800F016
:1011B0000F00B04201D00120E7E72878400705D5AD
:1011C0002068E96820F4E050084320602878000790
:1011D00006D52068296920F4604040EAC1002060FB
:1011E00000F038F82168084AC1F30311515CC84087
:1011F0000649086006480068FFF7FAFE0020C4E7C9
:10120000003C024008380240A43500086C00002071
:10121000640000200448054900680968044AC1F3D5
:101220008221515CC84070476C00002008380240A1
:10123000B43500080448054900680968044AC1F348
:101240004231515CC84070476C00002008380240B1
:10125000B4350008154810B5006810F00C021448A9
:1012600013D01449042A0FD0082A0ED10F4C241F82
:101270002268236802F03F025B0207D52068C0F3B2
:101280008810A0FB010106E0084610BD2168C1F3EB
:101290008811A1FB00010023FEF792FF2168C1F332
:1012A0000141491C4900B0FBF1F010BD0838024073
:1012B0000024F40040787D012DE9F84F040076D039
:1012C0002078DFF838A3CE4DC00749D0DAF80010F7
:1012D0005046C1F38101012908D00068C0F38100A4
:1012E00002280AD1281D0068400206D5286880031C
:1012F00036D560680028E2D032E06068B0F5803F03
:1013000010D0B0F5A02F286810D020F480302860CD
:10131000286820F4802028606068A0B1FFF7C0FB37
:1013200006460CE0286840F48030F4E740F4802062
:101330002860F7E7FFF7B4FB801B642873D82868A0
:101340008003F7D50CE0FFF7ABFB064605E000BFD6
:10135000FFF7A6FB801B6428F0D828688003F7D429
:101360002078DFF8A08280074FF000093ED5DAF838
:101370000010504611F00C0F09D00068C0F3810036
:1013800002280BD19D48001F0068400206D428683F
:10139000800715D5E068012809D111E0E068B8B1EF
:1013A0000120C8F80000FFF77BFB064605E020E1BE
:1013B000FFF776FB801B0228C0D828688007F7D586
:1013C0002868216920F0F80040EAC10028600DE09B
:1013D000C8F80090FFF764FB064604E0FFF760FBE7
:1013E000801B02281FD828688007F7D420780007C0
:1013F00022D5824E844861696C3671B10121016049
:10140000FFF74EFB074604E0FFF74AFBC01B02282C
:1014100009D830688007F7D50EE0C0F80090FFF7D4
:101420003FFB074605E082E0FFF73AFBC01B0228BE
:101430007DD830688007F7D42078400768D5DFF87A
:10144000BCB100270BF1380BDBF80000C0000BD457
:10145000DBF8001041F08051CBF80010DBF8000001
:10146000012700F080500090684E3068C00510D40D
:10147000306840F480703060FFF712FB009005E0A8
:10148000FFF70EFB0099401A022850D83068C005BB
:10149000F6D55A4EA068683601280FD00528306866
:1014A00010D020F001003060306820F0040030607F
:1014B000A068B8B1FFF7F4FA00900FE0306840F090
:1014C0000100F4E740F004003060F7E7FFF7E8FAC6
:1014D0000099411A41F28830814266D8306880070D
:1014E000F4D50EE0FFF7DCFA009007E0FFF7D8FA3A
:1014F0000099411A41F28830814256D830688007FD
:10150000F4D42FB1DBF8001021F08051CBF800109B
:10151000A069D0B3DAF800205146C2F38102022A52
:101520004AD00228484607D0C8F8600000E03CE0F6
:10153000FFF7B6FA04463BE04746C8F86000FFF7FD
:10154000AFFA064605E000BFFFF7AAFA801B0228A3
:101550002BD828688001F7D4D4E907010843A16A91
:101560002B4A490802EB0141626A41EA82110843B1
:1015700094F82C1040EA01612048001F016001200E
:101580003866FFF78DFA044605E034E0FFF788FA85
:10159000001B022809D828688001F7D52BE000BF7E
:1015A000FFF77EFA001B022802D90320BDE8F88F5E
:1015B00028688001F4D41EE00128F7D00868E269A9
:1015C00000F48001914214D1226A00F03F0191425F
:1015D0000FD147F6C071626A0140914209D1A26AF7
:1015E00000F44031914204D1E16A00F07060884219
:1015F00001D00120DAE70020D8E7000008380240D7
:101600000038024000004742800E47420070004010
:101610000000FFFF10B5401EB0F1807F01D3012014
:1016200010BD4FF0E02460610F21601700F0D8FE7C
:101630000020A06107202061002010BD7047704786
:1016400070B590F83C20012A32D0012480F83C404B
:10165000022280F83D2003685A689D6822F07006D7
:101660000A6832435A60134B02689A4214D0B2F1AE
:10167000804F11D0104B9A420ED0104B9A420BD093
:101680000F4B9A4208D00F4B9A4205D00E4B9A420C
:1016900002D00E4B9A4204D1496825F080031943C9
:1016A000916080F83D40002180F83C10084670BDF4
:1016B000022070BD0000014000040040000800400E
:1016C000000C0040000401400040014000180040B0
:1016D00010B5040003D094F83D0010B107E00120DC
:1016E00010BD002084F83C00204600F00DF80220D8
:1016F00084F83D00211D206800F0FCFC012084F8E6
:101700003D00002010BD000008B50068B0F1804F1A
:1017100012D10A48016841F001010160006800220D
:1017200000F00100009011461C20FFF7A7FCBDE867
:1017300008401C20FFF794BC08BD00004038024060
:101740000168CA6842F00102CA600068816801F05D
:101750000701062903D0016841F001010160002062
:10176000704770B5044690F83C00012817D0012559
:1017700084F83C50022084F83D002068826822F002
:10178000770222F47F4282600868502830D00DDC56
:1017900020284DD005DC98B310283BD148E002202A
:1017A00070BD302844D0402834D139E0602828D09A
:1017B000702806D0B0F5805F2CD0B0F5005F29D13D
:1017C0000AE0CB68D1E90121206800F0F7FC20682D
:1017D000816841F0770109E0CB68D1E901212068F7
:1017E00000F0ECFC2068816841F48041816011E0E8
:1017F000CA684968206800F0F3FC5021206807E0BF
:1018000016E0CA684968206800F0FBFC6021206887
:1018100000F0DEFC84F83D50002084F83C0070BDF0
:10182000CA684968206800F0DBFC40212068EFE7C7
:10183000226801461046EBE7704770B50446006821
:1018400001694FF00005C943890715D4C168C94330
:10185000890711D4E91E0161012020772068806981
:101860008007204602D0FFF7E7FF04E000F098F879
:10187000204600F096F8257720680169C94349079A
:1018800017D4C168C943490713D46FF0040101613B
:10189000022020772068806910F4407F204602D023
:1018A000FFF7CAFF04E000F07BF8204600F079F86B
:1018B000257720680169C943090716D4C168C9435F
:1018C000090712D46FF00801016104202077206815
:1018D000C0698007204602D0FFF7AEFF04E000F0A9
:1018E0005FF8204600F05DF8257720680169C9435C
:1018F000C90617D4C168C943C90613D46FF01001D3
:101900000161082020772068C06910F4407F2046DC
:1019100002D0FFF791FF04E000F042F8204600F00B
:1019200040F8257720680169C943C90708D1C16813
:10193000C943C90704D1891E0161204600F032F86D
:1019400020680169C943090609D4C168C943090669
:1019500005D46FF0800101612046FFF76FFE20681B
:101960000169C943490609D4C168C943490605D478
:101970006FF040010161204600F058F820680169CD
:10198000C94389060BD4C168C943890607D46FF0DF
:10199000200101612046BDE87040FFF750BE70BDD8
:1019A000704770472DE9FF414FF480511948FFF708
:1019B0006BF801F099FD01F0EBFC01F0F3FB01F095
:1019C000A7FA01F08BF9DFF85080D8F83800FEF75D
:1019D00018FE06460F46D8F83400FEF712FE0446FD
:1019E0000D46D8F83000FEF70CFE41EC100B8DE8E8
:1019F000F00053EC102B09A10B4800F0DDFC04B003
:101A00000949BDE8F0410A236422A1F1400000F039
:101A100073B80000000C02400000002025660A2573
:101A2000660A25660A00000044010020704770B570
:101A3000040004D094F83900002510B106E001201C
:101A400070BD84F83850204600F022F8242084F835
:101A500039002068C16821F40051C160204600F0BF
:101A6000E3FB2068016921F490410161206841692C
:101A700021F02A0141612068C16841F40051C16030
:101A8000E563202084F8390084F83A00002070BD16
:101A900010B586B0044614216846FEF7C9FB134909
:101AA0002068884220D112480021026842F40032A6
:101AB0000260006800F4003005900D48103802689C
:101AC00042F001020260006800F0010005900C2065
:101AD00000900220CDE9010103200390072004902B
:101AE00069460448FEF7F4FE06B010BD004400400D
:101AF00040380240000002402DE9F843044690F8C7
:101B000039001F4616460D46202850D1B5B1AEB15A
:101B100094F8380001284AD0012084F838004FF0AA
:101B20000008C4F83C80212084F83900FEF7B8FF93
:101B3000A6848146E68484F8388026E00120BDE84A
:101B4000F883E08C401EE084A0684B46B0F5805FCF
:101B50004FF000024FF080012046009703D000F0C4
:101B6000F7FBE8B90DE000F0F3FBC8B9288821685D
:101B7000C0F308004860206908B16D1C05E0AD1C89
:101B800003E0216815F8010B4860E08C0028D8D1EB
:101B90004B46002240212046009700F0D9FB08B1B7
:101BA0000320CCE7202084F839000020C7E702207A
:101BB000C5E7FEE701684A69D24352050FD46FF4C6
:101BC00080624A61002140F8301F202242738173F5
:101BD000026942F004020261017301207047002093
:101BE000704700002DE9F84F0446C06A1E46934630
:101BF0000D4621680A6842F480620A60082807D00E
:101C0000012805D010F5803F02D0206B112804D1A7
:101C10002068016841F4807101604FF001195B4652
:101C2000002249462046009600F0C6F84FF400789E
:101C300040B120680068C00501D5C4F84080032089
:101C4000BDE8F88F2069DFF884A0B0F5804F0FD091
:101C50000620216800EAD51747F0F00008613346F6
:101C60005A460AF10601204600F0DAF858BB03E0B4
:101C7000E8B240F001001CE02168E8B20861334698
:101C80005A465146204600F0CBF8E0B92068416939
:101C900081690091016841F4807101605B46002216
:101CA00049462046009600F087F80028C1D147F049
:101CB000F1002168086133465A465146204600F03B
:101CC000AFF80028BCD00120BAE7000002000100F4
:101CD000F8B50446C06A1E460D461746082807D0C8
:101CE000012805D010F5803F02D0206B122804D1C6
:101CF0002068016841F480710160134600224FF0B2
:101D000001112046009600F057F840B120680068A5
:101D1000C00502D54FF4007020640320F8BD20698F
:101D2000B0F5804F0ED00620216800EAD51040F0B3
:101D3000F000086133463A460B49204600F070F83F
:101D400078B902E005F0FE0000E0E8B22168086121
:101D5000054933463A46891F204600F061F80028BD
:101D6000DCD00120F8BD00000800010070B5164667
:101D70000D4604460DE02046FFF71CFF08B1012088
:101D800070BD681C05D0FEF78BFE801BA84207D8EB
:101D900035B120684069C0434007ECD4002070BDD5
:101DA000002044F8300F20216173A073216941F0B5
:101DB000200121612073E2E72DE9F0471E4690469D
:101DC0000D460446C1F30747DDF8209008E0701C7B
:101DD00006D0FEF765FEA0EB0900B0420FD876B141
:101DE0002068012F18D0806925EA00000004000C4B
:101DF00014D000214145EAD00020BDE8F087002042
:101E000044F8300F20216173A073216941F0200153
:101E1000216120730120F0E74069E5E70121E9E74E
:101E20002DE9F0479A4691460E46044600254FF0AC
:101E30002008C1F3074725E020684069C0434005FA
:101E400014D42068016841F40071016021686FF4C6
:101E500080604861256384F83D8084F83E50206CA2
:101E600040F00400206484F83C501FE0B9F1FF3FCB
:101E700008D0FEF715FEA0EB0A0149450CD8B9F1D0
:101E8000000F09D02068012F13D0806926EA0000D6
:101E90000004000C0BD0CFE744F8305F84F80D80CD
:101EA000A573206940F02000206125730120BDE862
:101EB000F0874069EAE72DE9F041002590460E469B
:101EC0000446202717E04069C043C0060CD454F8EC
:101ED000301B6FF01000486144F810596777A57700
:101EE000206A2062257717E0FEF7DAFDA0EB0800F4
:101EF000B04208D83EB120684169C9434906E2D4DE
:101F00000020BDE8F08144F8305F6773A573206955
:101F100040F02000206125730120F2E770B51646DD
:101F20000D4604460DE02046FFF744FE08B10120AF
:101F300070BD681C05D0FEF7B3FD801BA84207D812
:101F400035B120684069C0430006ECD4002070BD64
:101F5000002044F8300F20216173A073216941F003
:101F6000200121612073E2E72DE9F04186B01421C0
:101F70006846FEF75DF91F480024016841F0010141
:101F80000160016801F001010591016841F0020161
:101F90000160016801F002010591016841F008014A
:101FA00001600068144F00F008004FF48045059070
:101FB000002229463846FEF76EFDDFF840804FF4D8
:101FC0007046002231464046FEF765FD009501252A
:101FD000CDE90154694638460394FEF779FC009632
:101FE000CDE90154694640460394FEF771FC06B002
:101FF000BDE8F0813038024000040240000C02408D
:1020000010B586B000241148009401940294039402
:1020100004944FF08041059401604FF47A51C0E977
:1020200001140911C0E903148461FFF751FB4FF457
:102030008050009069460548FFF793FB049404A97B
:1020400002480594FFF7FCFA06B010BDC40000205A
:10205000FEE7704770477047FEF7A8BF10B592B013
:1020600030216846FEF7E4F814210CA8FEF7E0F8EA
:1020700014480024016841F080510160006800F0BC
:10208000805011901048016841F48041016000685F
:10209000069400F4804011900220009001200390EB
:1020A000102004906846FFF707F90F20CDE90C04D3
:1020B0000E940F9400210CA81094FFF711F812B0A1
:1020C00010BD000040380240007000400548016823
:1020D00041F47001016003494FF0006080390860ED
:1020E0007047000088ED00E00148FFF7A6BB000044
:1020F000C4000020F0B50268254C264D264E274F1F
:10210000274B4FF0804CA04209D0604507D0A84231
:1021100005D0B04203D0B84201D0984204D122F099
:10212000700E4A6842EA0E02A0421BD0604519D0E8
:10213000A84217D0B04215D0B84213D0984211D05F
:10214000184DA8420ED0184DA8420BD0174DA842EA
:1021500008D0174DA84205D0164DA84202D0164D02
:10216000A84203D122F44075CA682A434D6922F07F
:1021700080022A4302608A68C2620A688262A042C0
:1021800001D0984201D10969016301214161F0BD8B
:10219000000001400004004000080040000C004026
:1021A000000401400040014000440140004801405B
:1021B00000180040001C00400020004010B584685A
:1021C00042EA032224F47F440A432243826010BD82
:1021D000826822F070020A4342F007018160704772
:1021E00010B5036A046A24F001040462846924F0CF
:1021F000F00444EA021423F00A020A4384610262F2
:1022000010BD10B5036A23F0100303628369046AEA
:1022100023F4704343EA023224F0A00343EA01119D
:102220008261016210BD00002DE9F04104460068A2
:102230000169E26821F44051114301612169A068FC
:10224000E26908436169114308432168CA6849F299
:102250000C639A430243CA6020684169A26921F471
:10226000407111434161E069192764253226B0F5B8
:10227000004F354A354920684FF0000806D08842A3
:1022800001D0904236D1FEF7D5FF35E0884201D02B
:10229000904202D1FEF7CEFF01E0FEF7BBFF61687E
:1022A0004A18A0FB070148EB0803FDF789FF014628
:1022B000B0FBF5F00201B1FBF5F06FF018035843E5
:1022C00001EB800006EBC000B0FBF5F000F0F80079
:1022D00002EB4002B1FBF5F0584301EB800006EB46
:1022E000C000B0FBF5F000F00700216810448860E2
:1022F000BDE8F081FEF78EFF61688B0F8A00A0FBBE
:102300000701FDF75DFF0146B0FBF5F06FF0180225
:10231000504301EB800006EB0010B0FBF5F000F03D
:10232000F002B1FBF5F002EB0012B1FBF5F06FF03B
:102330001803584301EB800006EB0010B0FBF5F0EA
:1023400000F00F00D1E70000001401400010014030
:102350002DE9F041984617460E460446069D1DE0BD
:10236000681C1BD02DB1FEF79BFBA0EB0800A84218
:1023700014D92068C16821F4D071C1602068416916
:1023800021F001014161202084F8390084F83A00ED
:10239000002084F838000320BDE8F0812068006840
:1023A00036EA000004D00020B842D9D00020F3E77C
:1023B0000120F9E7FEE700000FB4084B10B504A9AF
:1023C00002AA039800F0EEF8044602A9002000F0EB
:1023D00080FC204610BC5DF814FB0000D32C0008E4
:1023E0000907090E002804DB00F1E02080F8001442
:1023F000704700F00F0000F1E02080F8141D7047D6
:1024000002E008C8121F08C1002AFAD170477047BD
:10241000002001E001C1121F002AFBD1704700001B
:102420002DE9FF5F82B00021DDE90430020DDDF807
:1024300040B0034318D044F61050A2F2FF3242439A
:102440001514119801281FD0A5EB0B00401C5FEA62
:10245000000A4FF000064E4FDFF83891B046504664
:1024600015D5CAF1000413E0119801244AA30128EC
:1024700001D16FEA0B010298119AC0E90031C0E95D
:10248000024206B0BDE8F09FCBF10000DFE7044652
:102490000021404A491842EB0450CDE9001012E0F7
:1024A000E00707D032463B4640464946FDF772FFFB
:1024B0008046894632463B4610461946FDF76AFF7C
:1024C00006460F466410002CEAD1DDE90401DDE97F
:1024D0000023BAF1000F06DAFDF75CFF42464B46D7
:1024E000FDF758FF05E0FDF7C7FF42464B46FDF7F5
:1024F000C3FF04460E460022284BFEF7ADF803D872
:102500004FF0FF30014607E00022254B20463146C0
:10251000FDF799FEFEF7AFF9102409E0002C0ADB65
:102520000A220023FDF74CFE039B30321A55641E2D
:1025300050EA0102F2D1641C039AC4F1110314445D
:10254000119A012A03D0012208430DD10AE0084361
:1025500004D000204FF0110B119072E7A3EB0B0594
:102560006D1E0DE05B4504DD4FF0000205F1010535
:1025700004E003DA4FF00002A5F10105002AECD0D7
:1025800002981199C0E90231C0E9004579E70000DD
:10259000000014400000F03F300000000000F04355
:1025A0000000E03F2DE9FF4F95B09B468946064667
:1025B00000250FE2252877D100242746F84A01217B
:1025C000059400E0044316F8013F203B01FA03F0B4
:1025D0001042F7D130782A2811D06FF02F033078CD
:1025E000A0F13002092A16D8059A44F0020402EB41
:1025F000820203EB42021044761C0590EFE759F883
:10260000042B0592002A03DA504244F4005405904A
:1026100044F00204761C30782E2816D116F8010FEB
:1026200044F004042A280DD06FF02F023078A0F176
:102630003003092B09D807EB870302EB4303C718C4
:10264000761CF3E759F8047B761C30786C280FD0A1
:1026500006DC4C2817D068280DD06A2814D104E075
:10266000742810D07A280FD10DE044F400140AE049
:1026700044F4801401E044F440147278824202D1A0
:1026800004F58014761C761C307866280BD013DC99
:10269000582877D009DC002875D04528F6D0462880
:1026A000F4D047281AD19DE118E0632835D064287A
:1026B00079D0652812D195E1702873D008DC67289D
:1026C000F1D069286FD06E280DD06F2806D1B5E003
:1026D00073282CD0752875D0782874D05A4617994D
:1026E00090476D1C75E1C4F30250022809D00328FD
:1026F0000DD0D9F8001004280DD00D6009F104099F
:1027000067E1D9F80010EA17C1E90052F6E7D9F8F5
:1027100000100D80F2E70D70F0E719F8041B8DF83A
:10272000001000208DF80100EA46012003E059F86E
:1027300004AB4FF0FF3061074FF0000102D40DE011
:1027400008F101018846B9420FDA8045F8DB1AF832
:1027500008100029F4D108E008F1010188468142FF
:10276000FADB1AF808100029F6D105985B46A0EBB1
:10277000080721463846179A00F094FA284400EBDF
:10278000080507E04DE029E10DE01AF8010B5A4673
:1027900017999047B8F10108F7D25B4621463846B1
:1027A000179A13E142E00A220092C4F302524FF05A
:1027B000000A022A08D059F804CB032A4FEAEC7128
:1027C0000AD00DE029E02AE009F1070121F0070213
:1027D000F2E802C1914609E00FFA8CFC4FEAEC7175
:1027E000042A03D14FFA8CFC4FEAEC71002907DA76
:1027F0000A460021DCF1000C61EB02012D2202E00F
:10280000220504D52B228DF80420012203E0E207E3
:1028100001D02022F7E7904659E00A2102E0102279
:102820000DE010214FF0000A00910BE010224FF054
:10283000000A44F004040827009203E008224FF045
:10284000000A0092C4F30252022A05D059F804CBC0
:102850000021032A08D009E009F1070121F007024D
:10286000F2E802C1914605E01FFA8CFC042A01D16E
:102870000CF0FF0C4FF00008220728D5702806D076
:10288000009B83F0100353EA0A0305D00EE04022B8
:102890008DF80420012208E05CEA010206D0302213
:1028A0008DF804208DF8050002229046009B83F0ED
:1028B000080353EA0A030AD15CEA010201D1620764
:1028C00005D530228DF804204FF001087F1E5828CE
:1028D00004D034A003900EA802900DE036A0F9E7D2
:1028E00053466046009AFDF76BFC84460398825C71
:1028F0000298401E029002705CEA0100F0D102983A
:1029000006A9081A00F1200A600702D524F48034D1
:1029100000E00127574502DDA7EB0A0000E0002098
:1029200000EB0A01009005984144401A0590E0032D
:1029300006D45B462146179A059800F0B3F9054482
:10294000002706E001A85A46C05D179990476D1C04
:102950007F1C4745F6DBE0030CD55B462146179A02
:10296000059800F09FF9054404E030205A46179975
:1029700090476D1C0099481E00900029F5DC08E086
:10298000029802995A460078491C0291179990477B
:102990006D1CBAF10001AAF1010AF1DC65E1000049
:1029A0000928010030313233343536373839616225
:1029B00063646566000000003031323334353637E9
:1029C00038394142434445460000000000F058F9C0
:1029D0000544761C307800287FF4ECAD19B0284609
:1029E000BDE8F08F620700D4062709F1070222F044
:1029F000070CFCE80223E14603F000485FEA080CFC
:102A000002D00FF2702C0DE05FEA045C02D50FF2E9
:102A1000682C07E05FEAC47C02D00FF2602C01E072
:102A2000AFF2700C4FF0FF3823F00043CDF850C0E8
:102A300065280CD006DC452809D046281DD047283B
:102A40003DD13DE0662818D067287ED138E00021CE
:102A5000112F01DB112000E0781CCDE9000106A94F
:102A60000EA8FFF7DDFCDDE90F010E9A03910021AE
:102A7000009207F1010A04914DE04FF000400097E9
:102A8000CDE9011006A90EA8FFF7CAFCDDE90F0287
:102A900003920E9B11990022DDF80CA00093049282
:102AA00011B9791C00EB010AB7EB0A0004D4C0F19C
:102AB000FF3007F1010A0490AAEB0700019044E0FF
:102AC000012F00DA01270021112F01DD112000E084
:102AD0003846CDE9000106A90EA8FFF7A1FCDDE903
:102AE0000F010E9A0391002104910092BA4621072A
:102AF0000CD40399514500DA8A46BAF1010F05DD7D
:102B0000009AAAF10101515C302908D0B84202DADA
:102B100010F1040F06DA0121CDE9011015E0AAF148
:102B20000101E9E7002805DC049901440491AAEBBE
:102B3000000102E0411C514500DD8A460499401A1B
:102B4000401C01904FF000400290200704D40198EF
:102B5000504501DBCDF8048000208DF84F0002982D
:102B60000DF14F07B0F1004F25D02B200E900298A9
:102B70004FF0020800280CDA404202902D200E90FF
:102B800007E00A210298FDF79BFD3031029007F81B
:102B9000011DB8F10001A8F10108F2DC029800283B
:102BA000EFD1791E0E980870307800F0200040F0C8
:102BB000450007F8020D12A8C01B00F10708149881
:102BC000007800B1012000EB0A01019801EBE071EF
:102BD00005984144401A401E0590E00306D45B4628
:102BE0002146179A059800F05DF80544149800787E
:102BF00018B15A46179990476D1CE00324D55B46DF
:102C00002146179A059800F04DF805441CE00498F9
:102C1000002807DBDDE90301884203DD0098405C02
:102C2000179901E0179930205A469047049805F10A
:102C30000105401C04900198401E019004D12E20F3
:102C40005A46179990476D1CBAF10001AAF1010A82
:102C5000DDDC05E017F8010B5A46179990476D1C0B
:102C6000B8F10001A8F10108F4DC5B462146179A8F
:102C70000598ABE62D0000002B00000020000000AE
:102C80002DE9F041044600251E461746880404D469
:102C900005E039462020B0476D1C641EF9D5284652
:102CA000BDE8F0812DE9F041044600251E4690461E
:102CB000C80301D5302700E02027880404D505E0AB
:102CC00041463846B0476D1C641EF9D52846BDE81C
:102CD000F0810A68531C0B601070704710B52DED21
:102CE0000C8B82B09FED6D8B9FED6E9B9FED6FAB5C
:102CF000704C9FED710B53EC102B94ED160B51ECB7
:102D0000100BFDF741FB41EC1B0BB4F91C00FDF768
:102D100022FC41EC1D0B6078FDF72EFC53EC1B2BC5
:102D2000FDF738FB9FED661B53EC112BFDF732FBD3
:102D30009FED651B53EC112BFDF785FA41EC1C0B45
:102D400094F90200FDF707FC53EC1B2BFDF722FB67
:102D500053EC182BFDF71EFB53EC1C2BFDF71AFB55
:102D600053EC182BFDF716FB9FED591B53EC112B61
:102D7000FDF769FA53EC1D2BFDF70CFB9FED561B7D
:102D800053EC112BFDF75FFA9FED551B53EC112B04
:102D9000FDF700FB41EC1C0BB4F92000FDF7DBFB59
:102DA00053EC1B2BFDF7F6FA41EC1B0BE06AE18BB1
:102DB0008003A0EB0150FDF7CEFB53EC1B2BFDF77E
:102DC000E3FA9FED491B53EC112BFDF73CFA9FED05
:102DD00048DB53EC1D2BFDF7DDFA53EC1C2BFDF704
:102DE000D9FA41EC1B0B2078FDF7C6FB41EC1C0B1C
:102DF00053EC1D2B51EC1B0BFDF7CCFA41EC100BE7
:102E000053EC102BFDF7C6FA9FED3B1B53EC112B37
:102E1000FDF7C0FA53EC1C2BFDF7BCFA9FED381BF5
:102E200053EC112BFDF7B6FA53EC1B2BFDF7AFFA61
:102E300041EC100B53EC192B84ED120BFDF7F4FB56
:102E400001D394ED129B53EC1A2B84ED129B51ECA1
:102E5000190BFDF701FC01D394ED12AB9FED2A0B8A
:102E600084ED12AB53EC102B51EC1A0BFDF792FAD8
:102E7000FDF7AEFBFDF780FB53EC182BFDF78AFA4C
:102E8000CDE900019DED000B51EC100BFDF7FCFBB3
:102E9000A06302B0BDEC0C8B10BD00000000000070
:102EA0000000503F00000000000000000000000093
:102EB0000000B941000000200000000000C0F24006
:102EC000000000000000403F000000000000E04063
:102ED0000000000000004041000000000000C04071
:102EE000000000000000103F000000000000D04083
:102EF000000000000000003F000000000000803FD4
:102F0000000000000000B03F000000000000303F63
:102F100010B52DED088B82B09FED870B884C53ECDC
:102F2000102B94ED160B51EC100BFDF733FA9FEDBF
:102F3000851B53EC112BFDF727FA41EC180BB4F964
:102F40001400FDF708FB41EC190B53EC182B51EC66
:102F5000180BFDF71FFA53EC192BFDF71BFA9FED29
:102F60007B9B53EC192BFDF715FA41EC1A0BB4F9C6
:102F70001200FDF7F0FA53EC182BFDF70BFA9FED5A
:102F8000751B53EC112BFDF705FA53EC1A2BFDF7CB
:102F90005AF941EC1A0BB4F91000FDF7DCFA9FED79
:102FA0006F1B53EC112BFDF7F5F941EC1B0B9FED5B
:102FB0006D0B51EC1A0B53EC102BFDF7EBF953ECA6
:102FC0001B2BFDF740F941EC1A0BB4F90C00FDF78F
:102FD000C2FA53EC182BFDF7DDF941EC1B0BB4F9E9
:102FE0000E00FDF7B8FA53EC182BFDF7D3F953ECAC
:102FF000182BFDF7CFF99FED5D8B53EC182BFDF7E8
:10300000C9F953EC1B2BFDF71EF953EC182BFDF7F8
:10301000C1F941EC180BE088FDF7AEFA41EC1B0B4F
:1030200053EC192B51EC180BFDF7B4F99FED511B24
:1030300053EC112BFDF707F953EC1B2BFDF7AAF905
:1030400041EC180BA06AFDF786FA9FED4C1B53EC80
:10305000112BFDF79CF99FED4B0BCDE9000153ECD3
:10306000102B51EC1A0BFDF795F99DED001B53EC5D
:10307000112BFDF78CF99FED451B53EC112BFDF740
:1030800089F953EC182BFDF7F7F9CDE90001B4F9F4
:103090001A00FDF760FA9DED001B53EC112BFDF7B4
:1030A00079F99DED001B53EC112BFDF773F99FEDA2
:1030B000391B53EC112BFDF76DF941EC1A0B84ED24
:1030C00012ABB4F91800FDF746FA9DED001B53EC66
:1030D000112BFDF75FF953EC192BFDF75BF941EC70
:1030E000180B84ED148BB4F91600FDF734FA41EC9B
:1030F000190B53EC182B51EC1A0BFDF7A4F853ECF9
:10310000192BFDF7A0F89FED251B53EC112BFDF7B4
:1031100041F99DED001B53EC112BFDF794F8CDE91F
:1031200000019DED000B51EC100BFDF7ADFA606353
:1031300002B0BDEC088B10BD000000000000E03FB5
:1031400000000020000000000040EF4000000000F0
:103150000000003F000000000000004000000000F0
:103160000000F040000000000000D03F0000000020
:103170000000C03E000000000000F03F0000000022
:1031800000003041000000000000303F000000005F
:10319000006AB840000000000000003E000000008F
:1031A0000000B03F2DE9F041F7202DED0A8B84B0EF
:1031B00042F21074012303AAEC218DF80C00684838
:1031C0000094FDF727FE0823664AED216448009429
:1031D000FDF730FD6348C178029101790191417991
:1031E00000910299019A090301EB0211009AA0F1E2
:1031F0003C0401EB1215656201780291417801915E
:10320000817800910299019A090301EB0211009A59
:1032100001EB1211A16281790291C07901900198AC
:10322000029900EB0120E062B4F90800FDF793F980
:1032300041EC180BA088FDF79FF9884648EC100B6D
:1032400006469FED491B51EC100B53EC112BFDF77B
:10325000A1F841EC190B2846FDF77DF90F4647EC24
:10326000100B05469FED421B51EC100B53EC112B3C
:10327000FDF790F853EC192BFDF786F853EC182B5B
:10328000FDF788F841EC190B84ED129BB4F90A00A4
:10329000FDF761F948EC106B9FED37AB41EC180B73
:1032A00053EC1A2B51EC100BFDF774F847EC105B44
:1032B0009FED33CB41EC1B0B53EC1C2B51EC100B53
:1032C000FDF768F853EC1B2BFDF75EF848EC106B2C
:1032D00041EC1B0B53EC1A2B51EC100BFDF75AF879
:1032E00047EC105B41EC1A0B53EC1C2B51EC100B10
:1032F000FDF750F853EC1A2BFDF746F853EC1B2B57
:10330000FDF748F853EC182BFDF744F841EC100B8F
:1033100051EC190B84ED140B53EC102BFCF793FFBD
:103320000E4646EC100B054651EC100BFDF731F93B
:10333000FDF711F946EC105B9FED131BC4E9160174
:1033400053EC112B51EC100BFDF796F8FDF79CF99F
:103350000090206304B0BDEC0A8BBDE8F081000052
:10336000700000203C000020000000000000503FE2
:10337000000000000000103F000000000000203F9F
:10338000000000000000E03E000000000000B4402B
:1033900030B58DB088208DF82800A1208DF82C0044
:1033A000E1208DF8300042F2107501230AAAEC21C9
:1033B0004B480095FDF72EFD182303AAED21484840
:1033C0000095FDF737FC9DF80C009DF80D10454C5D
:1033D00000EB01200123A0809DF80E009DF80F1046
:1033E0000BAA00EB012020819DF810009DF8111020
:1033F00000EB012060819DF812009DF8131000EB96
:103400000120E0809DF814009DF8151000EB0120CC
:10341000A0819DF816009DF8171000EB0120E081B7
:103420009DF818009DF8191000EB012020829DF8EE
:103430001A009DF81B1000EB012060829DF81C0013
:103440009DF81D1000EB0120A0829DF81E009DF844
:103450001F1000EB0120E0829DF820009DF8211054
:1034600000EB012020839DF822009DF8231000EB43
:1034700001206083EC211A480095FDF7CBFC012365
:1034800009AAED2116480095FDF7D4FB9DF824000C
:10349000207001230CAAEC2111480095FDF7BAFC1D
:1034A000072301AAED210E480095FDF7C3FBBDF8E7
:1034B0000400A0839DF8060060709DF808009DF848
:1034C0000720014662F31F11E1839DF809100901ED
:1034D00041EA101020849DF80A00A0700DB030BDA4
:1034E00070000020000000201CB50122910310484C
:1034F000FDF7D1FAF4208DF804004A208DF805007C
:1035000042F21074022301AAEC210A480094FDF74C
:1035100081FCF2208DF8040001208DF805000223C3
:1035200001AAEC2103480094FDF774FC1CBD0000C7
:103530000004024070000020FDF740FDFEF78EFD04
:10354000FEF712FD14481349002401601349C0E935
:1035500001144FF48041C0E9034144618461C461B6
:103560000462FDF7A3FA0C480D49943001604FF452
:10357000E131C0E901140C21C460C0E90441846157
:10358000C461FEF754FAFEF73BFD03485430FEF7E2
:10359000D7F8FEE70054004070000020A08601002C
:1035A000004400400000000000000000010203048D
:1035B000060708090000000001020304DC350008CA
:1035C0000000002070000000002400084C360008B5
:1035D00070000020380500001024000800000000E2
:1035E00000000000000000000000000000000000DB
:1035F00000000000000000000000000000000000CB
:1036000000000000000000000000000000000000BA
:1036100000000000000000000000000000000000AA
:10362000000000000000000000000000000000009A
:103630000000000000000000000000000100000089
:0C36400010000000000000000024F40056
:040000050800018965
:00000001FF
